{
  "_format": "hh-sol-artifact-1",
  "contractName": "ETHSAFARIMarketplace",
  "sourceName": "contracts/NFTMarketplace.sol",
  "abi": [
    {
      "inputs": [],
      "stateMutability": "nonpayable",
      "type": "constructor"
    },
    {
      "anonymous": false,
      "inputs": [
        {
          "indexed": true,
          "internalType": "address",
          "name": "owner",
          "type": "address"
        },
        {
          "indexed": true,
          "internalType": "address",
          "name": "approved",
          "type": "address"
        },
        {
          "indexed": true,
          "internalType": "uint256",
          "name": "tokenId",
          "type": "uint256"
        }
      ],
      "name": "Approval",
      "type": "event"
    },
    {
      "anonymous": false,
      "inputs": [
        {
          "indexed": true,
          "internalType": "address",
          "name": "owner",
          "type": "address"
        },
        {
          "indexed": true,
          "internalType": "address",
          "name": "operator",
          "type": "address"
        },
        {
          "indexed": false,
          "internalType": "bool",
          "name": "approved",
          "type": "bool"
        }
      ],
      "name": "ApprovalForAll",
      "type": "event"
    },
    {
      "anonymous": false,
      "inputs": [
        {
          "indexed": true,
          "internalType": "uint256",
          "name": "tokenId",
          "type": "uint256"
        },
        {
          "indexed": false,
          "internalType": "address",
          "name": "owner",
          "type": "address"
        },
        {
          "indexed": false,
          "internalType": "address",
          "name": "seller",
          "type": "address"
        },
        {
          "indexed": false,
          "internalType": "uint256",
          "name": "price",
          "type": "uint256"
        },
        {
          "indexed": false,
          "internalType": "bool",
          "name": "currentlyListed",
          "type": "bool"
        }
      ],
      "name": "TokenListedSuccess",
      "type": "event"
    },
    {
      "anonymous": false,
      "inputs": [
        {
          "indexed": true,
          "internalType": "address",
          "name": "from",
          "type": "address"
        },
        {
          "indexed": true,
          "internalType": "address",
          "name": "to",
          "type": "address"
        },
        {
          "indexed": true,
          "internalType": "uint256",
          "name": "tokenId",
          "type": "uint256"
        }
      ],
      "name": "Transfer",
      "type": "event"
    },
    {
      "inputs": [
        {
          "internalType": "address",
          "name": "to",
          "type": "address"
        },
        {
          "internalType": "uint256",
          "name": "tokenId",
          "type": "uint256"
        }
      ],
      "name": "approve",
      "outputs": [],
      "stateMutability": "nonpayable",
      "type": "function"
    },
    {
      "inputs": [
        {
          "internalType": "address",
          "name": "owner",
          "type": "address"
        }
      ],
      "name": "balanceOf",
      "outputs": [
        {
          "internalType": "uint256",
          "name": "",
          "type": "uint256"
        }
      ],
      "stateMutability": "view",
      "type": "function"
    },
    {
      "inputs": [
        {
          "internalType": "string",
          "name": "tokenURI",
          "type": "string"
        },
        {
          "internalType": "uint256",
          "name": "price",
          "type": "uint256"
        }
      ],
      "name": "createToken",
      "outputs": [
        {
          "internalType": "uint256",
          "name": "",
          "type": "uint256"
        }
      ],
      "stateMutability": "payable",
      "type": "function"
    },
    {
      "inputs": [
        {
          "internalType": "uint256",
          "name": "tokenId",
          "type": "uint256"
        }
      ],
      "name": "executeSale",
      "outputs": [],
      "stateMutability": "payable",
      "type": "function"
    },
    {
      "inputs": [],
      "name": "getAllNFTs",
      "outputs": [
        {
          "components": [
            {
              "internalType": "uint256",
              "name": "tokenId",
              "type": "uint256"
            },
            {
              "internalType": "address payable",
              "name": "owner",
              "type": "address"
            },
            {
              "internalType": "address payable",
              "name": "seller",
              "type": "address"
            },
            {
              "internalType": "uint256",
              "name": "price",
              "type": "uint256"
            },
            {
              "internalType": "bool",
              "name": "currentlyListed",
              "type": "bool"
            }
          ],
          "internalType": "struct ETHSAFARIMarketplace.ListedToken[]",
          "name": "",
          "type": "tuple[]"
        }
      ],
      "stateMutability": "view",
      "type": "function"
    },
    {
      "inputs": [
        {
          "internalType": "uint256",
          "name": "tokenId",
          "type": "uint256"
        }
      ],
      "name": "getApproved",
      "outputs": [
        {
          "internalType": "address",
          "name": "",
          "type": "address"
        }
      ],
      "stateMutability": "view",
      "type": "function"
    },
    {
      "inputs": [],
      "name": "getCurrentToken",
      "outputs": [
        {
          "internalType": "uint256",
          "name": "",
          "type": "uint256"
        }
      ],
      "stateMutability": "view",
      "type": "function"
    },
    {
      "inputs": [],
      "name": "getLatestIdToListedToken",
      "outputs": [
        {
          "components": [
            {
              "internalType": "uint256",
              "name": "tokenId",
              "type": "uint256"
            },
            {
              "internalType": "address payable",
              "name": "owner",
              "type": "address"
            },
            {
              "internalType": "address payable",
              "name": "seller",
              "type": "address"
            },
            {
              "internalType": "uint256",
              "name": "price",
              "type": "uint256"
            },
            {
              "internalType": "bool",
              "name": "currentlyListed",
              "type": "bool"
            }
          ],
          "internalType": "struct ETHSAFARIMarketplace.ListedToken",
          "name": "",
          "type": "tuple"
        }
      ],
      "stateMutability": "view",
      "type": "function"
    },
    {
      "inputs": [],
      "name": "getListPrice",
      "outputs": [
        {
          "internalType": "uint256",
          "name": "",
          "type": "uint256"
        }
      ],
      "stateMutability": "view",
      "type": "function"
    },
    {
      "inputs": [
        {
          "internalType": "uint256",
          "name": "tokenId",
          "type": "uint256"
        }
      ],
      "name": "getListedTokenForId",
      "outputs": [
        {
          "components": [
            {
              "internalType": "uint256",
              "name": "tokenId",
              "type": "uint256"
            },
            {
              "internalType": "address payable",
              "name": "owner",
              "type": "address"
            },
            {
              "internalType": "address payable",
              "name": "seller",
              "type": "address"
            },
            {
              "internalType": "uint256",
              "name": "price",
              "type": "uint256"
            },
            {
              "internalType": "bool",
              "name": "currentlyListed",
              "type": "bool"
            }
          ],
          "internalType": "struct ETHSAFARIMarketplace.ListedToken",
          "name": "",
          "type": "tuple"
        }
      ],
      "stateMutability": "view",
      "type": "function"
    },
    {
      "inputs": [],
      "name": "getMyNFTs",
      "outputs": [
        {
          "components": [
            {
              "internalType": "uint256",
              "name": "tokenId",
              "type": "uint256"
            },
            {
              "internalType": "address payable",
              "name": "owner",
              "type": "address"
            },
            {
              "internalType": "address payable",
              "name": "seller",
              "type": "address"
            },
            {
              "internalType": "uint256",
              "name": "price",
              "type": "uint256"
            },
            {
              "internalType": "bool",
              "name": "currentlyListed",
              "type": "bool"
            }
          ],
          "internalType": "struct ETHSAFARIMarketplace.ListedToken[]",
          "name": "",
          "type": "tuple[]"
        }
      ],
      "stateMutability": "view",
      "type": "function"
    },
    {
      "inputs": [
        {
          "internalType": "address",
          "name": "owner",
          "type": "address"
        },
        {
          "internalType": "address",
          "name": "operator",
          "type": "address"
        }
      ],
      "name": "isApprovedForAll",
      "outputs": [
        {
          "internalType": "bool",
          "name": "",
          "type": "bool"
        }
      ],
      "stateMutability": "view",
      "type": "function"
    },
    {
      "inputs": [],
      "name": "name",
      "outputs": [
        {
          "internalType": "string",
          "name": "",
          "type": "string"
        }
      ],
      "stateMutability": "view",
      "type": "function"
    },
    {
      "inputs": [
        {
          "internalType": "uint256",
          "name": "tokenId",
          "type": "uint256"
        }
      ],
      "name": "ownerOf",
      "outputs": [
        {
          "internalType": "address",
          "name": "",
          "type": "address"
        }
      ],
      "stateMutability": "view",
      "type": "function"
    },
    {
      "inputs": [
        {
          "internalType": "address",
          "name": "from",
          "type": "address"
        },
        {
          "internalType": "address",
          "name": "to",
          "type": "address"
        },
        {
          "internalType": "uint256",
          "name": "tokenId",
          "type": "uint256"
        }
      ],
      "name": "safeTransferFrom",
      "outputs": [],
      "stateMutability": "nonpayable",
      "type": "function"
    },
    {
      "inputs": [
        {
          "internalType": "address",
          "name": "from",
          "type": "address"
        },
        {
          "internalType": "address",
          "name": "to",
          "type": "address"
        },
        {
          "internalType": "uint256",
          "name": "tokenId",
          "type": "uint256"
        },
        {
          "internalType": "bytes",
          "name": "data",
          "type": "bytes"
        }
      ],
      "name": "safeTransferFrom",
      "outputs": [],
      "stateMutability": "nonpayable",
      "type": "function"
    },
    {
      "inputs": [
        {
          "internalType": "address",
          "name": "operator",
          "type": "address"
        },
        {
          "internalType": "bool",
          "name": "approved",
          "type": "bool"
        }
      ],
      "name": "setApprovalForAll",
      "outputs": [],
      "stateMutability": "nonpayable",
      "type": "function"
    },
    {
      "inputs": [
        {
          "internalType": "bytes4",
          "name": "interfaceId",
          "type": "bytes4"
        }
      ],
      "name": "supportsInterface",
      "outputs": [
        {
          "internalType": "bool",
          "name": "",
          "type": "bool"
        }
      ],
      "stateMutability": "view",
      "type": "function"
    },
    {
      "inputs": [],
      "name": "symbol",
      "outputs": [
        {
          "internalType": "string",
          "name": "",
          "type": "string"
        }
      ],
      "stateMutability": "view",
      "type": "function"
    },
    {
      "inputs": [
        {
          "internalType": "uint256",
          "name": "tokenId",
          "type": "uint256"
        }
      ],
      "name": "tokenURI",
      "outputs": [
        {
          "internalType": "string",
          "name": "",
          "type": "string"
        }
      ],
      "stateMutability": "view",
      "type": "function"
    },
    {
      "inputs": [
        {
          "internalType": "address",
          "name": "from",
          "type": "address"
        },
        {
          "internalType": "address",
          "name": "to",
          "type": "address"
        },
        {
          "internalType": "uint256",
          "name": "tokenId",
          "type": "uint256"
        }
      ],
      "name": "transferFrom",
      "outputs": [],
      "stateMutability": "nonpayable",
      "type": "function"
    },
    {
      "inputs": [
        {
          "internalType": "uint256",
          "name": "_listPrice",
          "type": "uint256"
        }
      ],
      "name": "updateListPrice",
      "outputs": [],
      "stateMutability": "payable",
      "type": "function"
    }
  ],
  "bytecode": "0x6080604052662386f26fc10000600a553480156200001c57600080fd5b506040518060400160405280601481526020017f4554485341464152494d61726b6574706c6163650000000000000000000000008152506040518060400160405280600381526020017f45535200000000000000000000000000000000000000000000000000000000008152508160009080519060200190620000a192919062000104565b508060019080519060200190620000ba92919062000104565b50505033600960006101000a81548173ffffffffffffffffffffffffffffffffffffffff021916908373ffffffffffffffffffffffffffffffffffffffff16021790555062000219565b8280546200011290620001e3565b90600052602060002090601f01602090048101928262000136576000855562000182565b82601f106200015157805160ff191683800117855562000182565b8280016001018555821562000182579182015b828111156200018157825182559160200191906001019062000164565b5b50905062000191919062000195565b5090565b5b80821115620001b057600081600090555060010162000196565b5090565b7f4e487b7100000000000000000000000000000000000000000000000000000000600052602260045260246000fd5b60006002820490506001821680620001fc57607f821691505b60208210811415620002135762000212620001b4565b5b50919050565b613cc480620002296000396000f3fe6080604052600436106101355760003560e01c80638e264590116100ab578063c322579c1161006f578063c322579c14610430578063c87b56dd1461044c578063d1a88ae514610489578063e0391b09146104b4578063e985e9c5146104df578063ef2d17461461051c57610135565b80638e2645901461035a57806395d89b41146103975780639b1225c4146103c2578063a22cb465146103de578063b88d4fde1461040757610135565b806342842e0e116100fd57806342842e0e14610231578063629cb2e41461025a5780636352211e1461028557806368f1945f146102c257806370a08231146102ed57806372b3b6201461032a57610135565b806301ffc9a71461013a57806306fdde0314610177578063081812fc146101a2578063095ea7b3146101df57806323b872dd14610208575b600080fd5b34801561014657600080fd5b50610161600480360381019061015c919061280c565b610547565b60405161016e9190612854565b60405180910390f35b34801561018357600080fd5b5061018c610629565b6040516101999190612908565b60405180910390f35b3480156101ae57600080fd5b506101c960048036038101906101c49190612960565b6106bb565b6040516101d691906129ce565b60405180910390f35b3480156101eb57600080fd5b5061020660048036038101906102019190612a15565b610701565b005b34801561021457600080fd5b5061022f600480360381019061022a9190612a55565b610819565b005b34801561023d57600080fd5b5061025860048036038101906102539190612a55565b610879565b005b34801561026657600080fd5b5061026f610899565b60405161027c9190612bfe565b60405180910390f35b34801561029157600080fd5b506102ac60048036038101906102a79190612960565b610c77565b6040516102b991906129ce565b60405180910390f35b3480156102ce57600080fd5b506102d7610d29565b6040516102e49190612c2f565b60405180910390f35b3480156102f957600080fd5b50610314600480360381019061030f9190612c4a565b610d33565b6040516103219190612c2f565b60405180910390f35b610344600480360381019061033f9190612dac565b610deb565b6040516103519190612c2f565b60405180910390f35b34801561036657600080fd5b50610381600480360381019061037c9190612960565b610e2d565b60405161038e9190612e70565b60405180910390f35b3480156103a357600080fd5b506103ac610f35565b6040516103b99190612908565b60405180910390f35b6103dc60048036038101906103d79190612960565b610fc7565b005b3480156103ea57600080fd5b5061040560048036038101906104009190612eb7565b6111b9565b005b34801561041357600080fd5b5061042e60048036038101906104299190612f98565b6111cf565b005b61044a60048036038101906104459190612960565b611231565b005b34801561045857600080fd5b50610473600480360381019061046e9190612960565b6112cb565b6040516104809190612908565b60405180910390f35b34801561049557600080fd5b5061049e6113de565b6040516104ab9190612e70565b60405180910390f35b3480156104c057600080fd5b506104c96114f3565b6040516104d69190612bfe565b60405180910390f35b3480156104eb57600080fd5b506105066004803603810190610501919061301b565b6116c2565b6040516105139190612854565b60405180910390f35b34801561052857600080fd5b50610531611756565b60405161053e9190612c2f565b60405180910390f35b60007f80ac58cd000000000000000000000000000000000000000000000000000000007bffffffffffffffffffffffffffffffffffffffffffffffffffffffff1916827bffffffffffffffffffffffffffffffffffffffffffffffffffffffff1916148061061257507f5b5e139f000000000000000000000000000000000000000000000000000000007bffffffffffffffffffffffffffffffffffffffffffffffffffffffff1916827bffffffffffffffffffffffffffffffffffffffffffffffffffffffff1916145b80610622575061062182611767565b5b9050919050565b6060600080546106389061308a565b80601f01602080910402602001604051908101604052809291908181526020018280546106649061308a565b80156106b15780601f10610686576101008083540402835291602001916106b1565b820191906000526020600020905b81548152906001019060200180831161069457829003601f168201915b5050505050905090565b60006106c6826117d1565b6004600083815260200190815260200160002060009054906101000a900473ffffffffffffffffffffffffffffffffffffffff169050919050565b600061070c82610c77565b90508073ffffffffffffffffffffffffffffffffffffffff168373ffffffffffffffffffffffffffffffffffffffff16141561077d576040517f08c379a00000000000000000000000000000000000000000000000000000000081526004016107749061312e565b60405180910390fd5b8073ffffffffffffffffffffffffffffffffffffffff1661079c61181c565b73ffffffffffffffffffffffffffffffffffffffff1614806107cb57506107ca816107c561181c565b6116c2565b5b61080a576040517f08c379a0000000000000000000000000000000000000000000000000000000008152600401610801906131c0565b60405180910390fd5b6108148383611824565b505050565b61082a61082461181c565b826118dd565b610869576040517f08c379a000000000000000000000000000000000000000000000000000000000815260040161086090613252565b60405180910390fd5b610874838383611972565b505050565b610894838383604051806020016040528060008152506111cf565b505050565b606060006108a76007611bd9565b905060008060005b838110156109c8573373ffffffffffffffffffffffffffffffffffffffff16600b60006001846108df91906132a1565b815260200190815260200160002060010160009054906101000a900473ffffffffffffffffffffffffffffffffffffffff1673ffffffffffffffffffffffffffffffffffffffff1614806109a057503373ffffffffffffffffffffffffffffffffffffffff16600b600060018461095691906132a1565b815260200190815260200160002060020160009054906101000a900473ffffffffffffffffffffffffffffffffffffffff1673ffffffffffffffffffffffffffffffffffffffff16145b156109b5576001836109b291906132a1565b92505b80806109c0906132f7565b9150506108af565b5060008267ffffffffffffffff8111156109e5576109e4612c81565b5b604051908082528060200260200182016040528015610a1e57816020015b610a0b6126a0565b815260200190600190039081610a035790505b50905060005b84811015610c6c573373ffffffffffffffffffffffffffffffffffffffff16600b6000600184610a5491906132a1565b815260200190815260200160002060010160009054906101000a900473ffffffffffffffffffffffffffffffffffffffff1673ffffffffffffffffffffffffffffffffffffffff161480610b1557503373ffffffffffffffffffffffffffffffffffffffff16600b6000600184610acb91906132a1565b815260200190815260200160002060020160009054906101000a900473ffffffffffffffffffffffffffffffffffffffff1673ffffffffffffffffffffffffffffffffffffffff16145b15610c59576000600182610b2991906132a1565b90506000600b60008381526020019081526020016000209050806040518060a0016040529081600082015481526020016001820160009054906101000a900473ffffffffffffffffffffffffffffffffffffffff1673ffffffffffffffffffffffffffffffffffffffff1673ffffffffffffffffffffffffffffffffffffffff1681526020016002820160009054906101000a900473ffffffffffffffffffffffffffffffffffffffff1673ffffffffffffffffffffffffffffffffffffffff1673ffffffffffffffffffffffffffffffffffffffff168152602001600382015481526020016004820160009054906101000a900460ff161515151581525050848681518110610c3c57610c3b613340565b5b6020026020010181905250600185610c5491906132a1565b945050505b8080610c64906132f7565b915050610a24565b508094505050505090565b6000806002600084815260200190815260200160002060009054906101000a900473ffffffffffffffffffffffffffffffffffffffff169050600073ffffffffffffffffffffffffffffffffffffffff168173ffffffffffffffffffffffffffffffffffffffff161415610d20576040517f08c379a0000000000000000000000000000000000000000000000000000000008152600401610d17906133bb565b60405180910390fd5b80915050919050565b6000600a54905090565b60008073ffffffffffffffffffffffffffffffffffffffff168273ffffffffffffffffffffffffffffffffffffffff161415610da4576040517f08c379a0000000000000000000000000000000000000000000000000000000008152600401610d9b9061344d565b60405180910390fd5b600360008373ffffffffffffffffffffffffffffffffffffffff1673ffffffffffffffffffffffffffffffffffffffff168152602001908152602001600020549050919050565b6000610df76007611be7565b6000610e036007611bd9565b9050610e0f3382611bfd565b610e198185611c1b565b610e238184611c8f565b8091505092915050565b610e356126a0565b600b60008381526020019081526020016000206040518060a0016040529081600082015481526020016001820160009054906101000a900473ffffffffffffffffffffffffffffffffffffffff1673ffffffffffffffffffffffffffffffffffffffff1673ffffffffffffffffffffffffffffffffffffffff1681526020016002820160009054906101000a900473ffffffffffffffffffffffffffffffffffffffff1673ffffffffffffffffffffffffffffffffffffffff1673ffffffffffffffffffffffffffffffffffffffff168152602001600382015481526020016004820160009054906101000a900460ff1615151515815250509050919050565b606060018054610f449061308a565b80601f0160208091040260200160405190810160405280929190818152602001828054610f709061308a565b8015610fbd5780601f10610f9257610100808354040283529160200191610fbd565b820191906000526020600020905b815481529060010190602001808311610fa057829003601f168201915b5050505050905090565b6000600b60008381526020019081526020016000206003015490506000600b600084815260200190815260200160002060020160009054906101000a900473ffffffffffffffffffffffffffffffffffffffff16905081341461105f576040517f08c379a0000000000000000000000000000000000000000000000000000000008152600401611056906134df565b60405180910390fd5b6001600b600085815260200190815260200160002060040160006101000a81548160ff02191690831515021790555033600b600085815260200190815260200160002060020160006101000a81548173ffffffffffffffffffffffffffffffffffffffff021916908373ffffffffffffffffffffffffffffffffffffffff1602179055506110ed6008611be7565b6110f8303385611972565b6111023084610701565b600960009054906101000a900473ffffffffffffffffffffffffffffffffffffffff1673ffffffffffffffffffffffffffffffffffffffff166108fc600a549081150290604051600060405180830381858888f1935050505015801561116c573d6000803e3d6000fd5b508073ffffffffffffffffffffffffffffffffffffffff166108fc349081150290604051600060405180830381858888f193505050501580156111b3573d6000803e3d6000fd5b50505050565b6111cb6111c461181c565b8383611e92565b5050565b6111e06111da61181c565b836118dd565b61121f576040517f08c379a000000000000000000000000000000000000000000000000000000000815260040161121690613252565b60405180910390fd5b61122b84848484611fff565b50505050565b3373ffffffffffffffffffffffffffffffffffffffff16600960009054906101000a900473ffffffffffffffffffffffffffffffffffffffff1673ffffffffffffffffffffffffffffffffffffffff16146112c1576040517f08c379a00000000000000000000000000000000000000000000000000000000081526004016112b890613571565b60405180910390fd5b80600a8190555050565b60606112d6826117d1565b60006006600084815260200190815260200160002080546112f69061308a565b80601f01602080910402602001604051908101604052809291908181526020018280546113229061308a565b801561136f5780601f106113445761010080835404028352916020019161136f565b820191906000526020600020905b81548152906001019060200180831161135257829003601f168201915b50505050509050600061138061205b565b90506000815114156113965781925050506113d9565b6000825111156113cb5780826040516020016113b39291906135cd565b604051602081830303815290604052925050506113d9565b6113d484612072565b925050505b919050565b6113e66126a0565b60006113f26007611bd9565b9050600b60008281526020019081526020016000206040518060a0016040529081600082015481526020016001820160009054906101000a900473ffffffffffffffffffffffffffffffffffffffff1673ffffffffffffffffffffffffffffffffffffffff1673ffffffffffffffffffffffffffffffffffffffff1681526020016002820160009054906101000a900473ffffffffffffffffffffffffffffffffffffffff1673ffffffffffffffffffffffffffffffffffffffff1673ffffffffffffffffffffffffffffffffffffffff168152602001600382015481526020016004820160009054906101000a900460ff16151515158152505091505090565b606060006115016007611bd9565b905060008167ffffffffffffffff81111561151f5761151e612c81565b5b60405190808252806020026020018201604052801561155857816020015b6115456126a0565b81526020019060019003908161153d5790505b5090506000805b838110156116b857600060018261157691906132a1565b90506000600b60008381526020019081526020016000209050806040518060a0016040529081600082015481526020016001820160009054906101000a900473ffffffffffffffffffffffffffffffffffffffff1673ffffffffffffffffffffffffffffffffffffffff1673ffffffffffffffffffffffffffffffffffffffff1681526020016002820160009054906101000a900473ffffffffffffffffffffffffffffffffffffffff1673ffffffffffffffffffffffffffffffffffffffff1673ffffffffffffffffffffffffffffffffffffffff168152602001600382015481526020016004820160009054906101000a900460ff16151515158152505085858151811061168957611688613340565b5b60200260200101819052506001846116a191906132a1565b9350505080806116b0906132f7565b91505061155f565b5081935050505090565b6000600560008473ffffffffffffffffffffffffffffffffffffffff1673ffffffffffffffffffffffffffffffffffffffff16815260200190815260200160002060008373ffffffffffffffffffffffffffffffffffffffff1673ffffffffffffffffffffffffffffffffffffffff16815260200190815260200160002060009054906101000a900460ff16905092915050565b60006117626007611bd9565b905090565b60007f01ffc9a7000000000000000000000000000000000000000000000000000000007bffffffffffffffffffffffffffffffffffffffffffffffffffffffff1916827bffffffffffffffffffffffffffffffffffffffffffffffffffffffff1916149050919050565b6117da816120da565b611819576040517f08c379a0000000000000000000000000000000000000000000000000000000008152600401611810906133bb565b60405180910390fd5b50565b600033905090565b816004600083815260200190815260200160002060006101000a81548173ffffffffffffffffffffffffffffffffffffffff021916908373ffffffffffffffffffffffffffffffffffffffff160217905550808273ffffffffffffffffffffffffffffffffffffffff1661189783610c77565b73ffffffffffffffffffffffffffffffffffffffff167f8c5be1e5ebec7d5bd14f71427d1e84f3dd0314c0f7b2291e5b200ac8c7c3b92560405160405180910390a45050565b6000806118e983610c77565b90508073ffffffffffffffffffffffffffffffffffffffff168473ffffffffffffffffffffffffffffffffffffffff16148061192b575061192a81856116c2565b5b8061196957508373ffffffffffffffffffffffffffffffffffffffff16611951846106bb565b73ffffffffffffffffffffffffffffffffffffffff16145b91505092915050565b8273ffffffffffffffffffffffffffffffffffffffff1661199282610c77565b73ffffffffffffffffffffffffffffffffffffffff16146119e8576040517f08c379a00000000000000000000000000000000000000000000000000000000081526004016119df90613663565b60405180910390fd5b600073ffffffffffffffffffffffffffffffffffffffff168273ffffffffffffffffffffffffffffffffffffffff161415611a58576040517f08c379a0000000000000000000000000000000000000000000000000000000008152600401611a4f906136f5565b60405180910390fd5b611a63838383612146565b611a6e600082611824565b6001600360008573ffffffffffffffffffffffffffffffffffffffff1673ffffffffffffffffffffffffffffffffffffffff1681526020019081526020016000206000828254611abe9190613715565b925050819055506001600360008473ffffffffffffffffffffffffffffffffffffffff1673ffffffffffffffffffffffffffffffffffffffff1681526020019081526020016000206000828254611b1591906132a1565b92505081905550816002600083815260200190815260200160002060006101000a81548173ffffffffffffffffffffffffffffffffffffffff021916908373ffffffffffffffffffffffffffffffffffffffff160217905550808273ffffffffffffffffffffffffffffffffffffffff168473ffffffffffffffffffffffffffffffffffffffff167fddf252ad1be2c89b69c2b068fc378daa952ba7f163c4a11628f55a4df523b3ef60405160405180910390a4611bd483838361214b565b505050565b600081600001549050919050565b6001816000016000828254019250508190555050565b611c17828260405180602001604052806000815250612150565b5050565b611c24826120da565b611c63576040517f08c379a0000000000000000000000000000000000000000000000000000000008152600401611c5a906137bb565b60405180910390fd5b80600660008481526020019081526020016000209080519060200190611c8a9291906126fd565b505050565b600a543414611cd3576040517f08c379a0000000000000000000000000000000000000000000000000000000008152600401611cca9061384d565b60405180910390fd5b60008111611d16576040517f08c379a0000000000000000000000000000000000000000000000000000000008152600401611d0d906138df565b60405180910390fd5b6040518060a001604052808381526020013073ffffffffffffffffffffffffffffffffffffffff1681526020013373ffffffffffffffffffffffffffffffffffffffff16815260200182815260200160011515815250600b60008481526020019081526020016000206000820151816000015560208201518160010160006101000a81548173ffffffffffffffffffffffffffffffffffffffff021916908373ffffffffffffffffffffffffffffffffffffffff16021790555060408201518160020160006101000a81548173ffffffffffffffffffffffffffffffffffffffff021916908373ffffffffffffffffffffffffffffffffffffffff1602179055506060820151816003015560808201518160040160006101000a81548160ff021916908315150217905550905050611e4f333084611972565b817f9339409317fd01fabff48b703019016f49159bacc801ae872d2ca637d226e4c03033846001604051611e8694939291906138ff565b60405180910390a25050565b8173ffffffffffffffffffffffffffffffffffffffff168373ffffffffffffffffffffffffffffffffffffffff161415611f01576040517f08c379a0000000000000000000000000000000000000000000000000000000008152600401611ef890613990565b60405180910390fd5b80600560008573ffffffffffffffffffffffffffffffffffffffff1673ffffffffffffffffffffffffffffffffffffffff16815260200190815260200160002060008473ffffffffffffffffffffffffffffffffffffffff1673ffffffffffffffffffffffffffffffffffffffff16815260200190815260200160002060006101000a81548160ff0219169083151502179055508173ffffffffffffffffffffffffffffffffffffffff168373ffffffffffffffffffffffffffffffffffffffff167f17307eab39ab6107e8899845ad3d59bd9653f200f220920489ca2b5937696c3183604051611ff29190612854565b60405180910390a3505050565b61200a848484611972565b612016848484846121ab565b612055576040517f08c379a000000000000000000000000000000000000000000000000000000000815260040161204c90613a22565b60405180910390fd5b50505050565b606060405180602001604052806000815250905090565b606061207d826117d1565b600061208761205b565b905060008151116120a757604051806020016040528060008152506120d2565b806120b184612342565b6040516020016120c29291906135cd565b6040516020818303038152906040525b915050919050565b60008073ffffffffffffffffffffffffffffffffffffffff166002600084815260200190815260200160002060009054906101000a900473ffffffffffffffffffffffffffffffffffffffff1673ffffffffffffffffffffffffffffffffffffffff1614159050919050565b505050565b505050565b61215a83836124a3565b61216760008484846121ab565b6121a6576040517f08c379a000000000000000000000000000000000000000000000000000000000815260040161219d90613a22565b60405180910390fd5b505050565b60006121cc8473ffffffffffffffffffffffffffffffffffffffff1661267d565b15612335578373ffffffffffffffffffffffffffffffffffffffff1663150b7a026121f561181c565b8786866040518563ffffffff1660e01b81526004016122179493929190613a97565b602060405180830381600087803b15801561223157600080fd5b505af192505050801561226257506040513d601f19601f8201168201806040525081019061225f9190613af8565b60015b6122e5573d8060008114612292576040519150601f19603f3d011682016040523d82523d6000602084013e612297565b606091505b506000815114156122dd576040517f08c379a00000000000000000000000000000000000000000000000000000000081526004016122d490613a22565b60405180910390fd5b805181602001fd5b63150b7a0260e01b7bffffffffffffffffffffffffffffffffffffffffffffffffffffffff1916817bffffffffffffffffffffffffffffffffffffffffffffffffffffffff19161491505061233a565b600190505b949350505050565b6060600082141561238a576040518060400160405280600181526020017f3000000000000000000000000000000000000000000000000000000000000000815250905061249e565b600082905060005b600082146123bc5780806123a5906132f7565b915050600a826123b59190613b54565b9150612392565b60008167ffffffffffffffff8111156123d8576123d7612c81565b5b6040519080825280601f01601f19166020018201604052801561240a5781602001600182028036833780820191505090505b5090505b60008514612497576001826124239190613715565b9150600a856124329190613b85565b603061243e91906132a1565b60f81b81838151811061245457612453613340565b5b60200101907effffffffffffffffffffffffffffffffffffffffffffffffffffffffffffff1916908160001a905350600a856124909190613b54565b945061240e565b8093505050505b919050565b600073ffffffffffffffffffffffffffffffffffffffff168273ffffffffffffffffffffffffffffffffffffffff161415612513576040517f08c379a000000000000000000000000000000000000000000000000000000000815260040161250a90613c02565b60405180910390fd5b61251c816120da565b1561255c576040517f08c379a000000000000000000000000000000000000000000000000000000000815260040161255390613c6e565b60405180910390fd5b61256860008383612146565b6001600360008473ffffffffffffffffffffffffffffffffffffffff1673ffffffffffffffffffffffffffffffffffffffff16815260200190815260200160002060008282546125b891906132a1565b92505081905550816002600083815260200190815260200160002060006101000a81548173ffffffffffffffffffffffffffffffffffffffff021916908373ffffffffffffffffffffffffffffffffffffffff160217905550808273ffffffffffffffffffffffffffffffffffffffff16600073ffffffffffffffffffffffffffffffffffffffff167fddf252ad1be2c89b69c2b068fc378daa952ba7f163c4a11628f55a4df523b3ef60405160405180910390a46126796000838361214b565b5050565b6000808273ffffffffffffffffffffffffffffffffffffffff163b119050919050565b6040518060a0016040528060008152602001600073ffffffffffffffffffffffffffffffffffffffff168152602001600073ffffffffffffffffffffffffffffffffffffffff168152602001600081526020016000151581525090565b8280546127099061308a565b90600052602060002090601f01602090048101928261272b5760008555612772565b82601f1061274457805160ff1916838001178555612772565b82800160010185558215612772579182015b82811115612771578251825591602001919060010190612756565b5b50905061277f9190612783565b5090565b5b8082111561279c576000816000905550600101612784565b5090565b6000604051905090565b600080fd5b600080fd5b60007fffffffff0000000000000000000000000000000000000000000000000000000082169050919050565b6127e9816127b4565b81146127f457600080fd5b50565b600081359050612806816127e0565b92915050565b600060208284031215612822576128216127aa565b5b6000612830848285016127f7565b91505092915050565b60008115159050919050565b61284e81612839565b82525050565b60006020820190506128696000830184612845565b92915050565b600081519050919050565b600082825260208201905092915050565b60005b838110156128a957808201518184015260208101905061288e565b838111156128b8576000848401525b50505050565b6000601f19601f8301169050919050565b60006128da8261286f565b6128e4818561287a565b93506128f481856020860161288b565b6128fd816128be565b840191505092915050565b6000602082019050818103600083015261292281846128cf565b905092915050565b6000819050919050565b61293d8161292a565b811461294857600080fd5b50565b60008135905061295a81612934565b92915050565b600060208284031215612976576129756127aa565b5b60006129848482850161294b565b91505092915050565b600073ffffffffffffffffffffffffffffffffffffffff82169050919050565b60006129b88261298d565b9050919050565b6129c8816129ad565b82525050565b60006020820190506129e360008301846129bf565b92915050565b6129f2816129ad565b81146129fd57600080fd5b50565b600081359050612a0f816129e9565b92915050565b60008060408385031215612a2c57612a2b6127aa565b5b6000612a3a85828601612a00565b9250506020612a4b8582860161294b565b9150509250929050565b600080600060608486031215612a6e57612a6d6127aa565b5b6000612a7c86828701612a00565b9350506020612a8d86828701612a00565b9250506040612a9e8682870161294b565b9150509250925092565b600081519050919050565b600082825260208201905092915050565b6000819050602082019050919050565b612add8161292a565b82525050565b6000612aee8261298d565b9050919050565b612afe81612ae3565b82525050565b612b0d81612839565b82525050565b60a082016000820151612b296000850182612ad4565b506020820151612b3c6020850182612af5565b506040820151612b4f6040850182612af5565b506060820151612b626060850182612ad4565b506080820151612b756080850182612b04565b50505050565b6000612b878383612b13565b60a08301905092915050565b6000602082019050919050565b6000612bab82612aa8565b612bb58185612ab3565b9350612bc083612ac4565b8060005b83811015612bf1578151612bd88882612b7b565b9750612be383612b93565b925050600181019050612bc4565b5085935050505092915050565b60006020820190508181036000830152612c188184612ba0565b905092915050565b612c298161292a565b82525050565b6000602082019050612c446000830184612c20565b92915050565b600060208284031215612c6057612c5f6127aa565b5b6000612c6e84828501612a00565b91505092915050565b600080fd5b600080fd5b7f4e487b7100000000000000000000000000000000000000000000000000000000600052604160045260246000fd5b612cb9826128be565b810181811067ffffffffffffffff82111715612cd857612cd7612c81565b5b80604052505050565b6000612ceb6127a0565b9050612cf78282612cb0565b919050565b600067ffffffffffffffff821115612d1757612d16612c81565b5b612d20826128be565b9050602081019050919050565b82818337600083830152505050565b6000612d4f612d4a84612cfc565b612ce1565b905082815260208101848484011115612d6b57612d6a612c7c565b5b612d76848285612d2d565b509392505050565b600082601f830112612d9357612d92612c77565b5b8135612da3848260208601612d3c565b91505092915050565b60008060408385031215612dc357612dc26127aa565b5b600083013567ffffffffffffffff811115612de157612de06127af565b5b612ded85828601612d7e565b9250506020612dfe8582860161294b565b9150509250929050565b60a082016000820151612e1e6000850182612ad4565b506020820151612e316020850182612af5565b506040820151612e446040850182612af5565b506060820151612e576060850182612ad4565b506080820151612e6a6080850182612b04565b50505050565b600060a082019050612e856000830184612e08565b92915050565b612e9481612839565b8114612e9f57600080fd5b50565b600081359050612eb181612e8b565b92915050565b60008060408385031215612ece57612ecd6127aa565b5b6000612edc85828601612a00565b9250506020612eed85828601612ea2565b9150509250929050565b600067ffffffffffffffff821115612f1257612f11612c81565b5b612f1b826128be565b9050602081019050919050565b6000612f3b612f3684612ef7565b612ce1565b905082815260208101848484011115612f5757612f56612c7c565b5b612f62848285612d2d565b509392505050565b600082601f830112612f7f57612f7e612c77565b5b8135612f8f848260208601612f28565b91505092915050565b60008060008060808587031215612fb257612fb16127aa565b5b6000612fc087828801612a00565b9450506020612fd187828801612a00565b9350506040612fe28782880161294b565b925050606085013567ffffffffffffffff811115613003576130026127af565b5b61300f87828801612f6a565b91505092959194509250565b60008060408385031215613032576130316127aa565b5b600061304085828601612a00565b925050602061305185828601612a00565b9150509250929050565b7f4e487b7100000000000000000000000000000000000000000000000000000000600052602260045260246000fd5b600060028204905060018216806130a257607f821691505b602082108114156130b6576130b561305b565b5b50919050565b7f4552433732313a20617070726f76616c20746f2063757272656e74206f776e6560008201527f7200000000000000000000000000000000000000000000000000000000000000602082015250565b600061311860218361287a565b9150613123826130bc565b604082019050919050565b600060208201905081810360008301526131478161310b565b9050919050565b7f4552433732313a20617070726f76652063616c6c6572206973206e6f7420746f60008201527f6b656e206f776e6572206e6f7220617070726f76656420666f7220616c6c0000602082015250565b60006131aa603e8361287a565b91506131b58261314e565b604082019050919050565b600060208201905081810360008301526131d98161319d565b9050919050565b7f4552433732313a2063616c6c6572206973206e6f7420746f6b656e206f776e6560008201527f72206e6f7220617070726f766564000000000000000000000000000000000000602082015250565b600061323c602e8361287a565b9150613247826131e0565b604082019050919050565b6000602082019050818103600083015261326b8161322f565b9050919050565b7f4e487b7100000000000000000000000000000000000000000000000000000000600052601160045260246000fd5b60006132ac8261292a565b91506132b78361292a565b9250827fffffffffffffffffffffffffffffffffffffffffffffffffffffffffffffffff038211156132ec576132eb613272565b5b828201905092915050565b60006133028261292a565b91507fffffffffffffffffffffffffffffffffffffffffffffffffffffffffffffffff82141561333557613334613272565b5b600182019050919050565b7f4e487b7100000000000000000000000000000000000000000000000000000000600052603260045260246000fd5b7f4552433732313a20696e76616c696420746f6b656e2049440000000000000000600082015250565b60006133a560188361287a565b91506133b08261336f565b602082019050919050565b600060208201905081810360008301526133d481613398565b9050919050565b7f4552433732313a2061646472657373207a65726f206973206e6f74206120766160008201527f6c6964206f776e65720000000000000000000000000000000000000000000000602082015250565b600061343760298361287a565b9150613442826133db565b604082019050919050565b600060208201905081810360008301526134668161342a565b9050919050565b7f506c65617365207375626d6974207468652061736b696e67207072696365206960008201527f6e206f7264657220746f20636f6d706c65746520746865207075726368617365602082015250565b60006134c960408361287a565b91506134d48261346d565b604082019050919050565b600060208201905081810360008301526134f8816134bc565b9050919050565b7f4f6e6c79206f776e65722063616e20757064617465206c697374696e6720707260008201527f6963650000000000000000000000000000000000000000000000000000000000602082015250565b600061355b60238361287a565b9150613566826134ff565b604082019050919050565b6000602082019050818103600083015261358a8161354e565b9050919050565b600081905092915050565b60006135a78261286f565b6135b18185613591565b93506135c181856020860161288b565b80840191505092915050565b60006135d9828561359c565b91506135e5828461359c565b91508190509392505050565b7f4552433732313a207472616e736665722066726f6d20696e636f72726563742060008201527f6f776e6572000000000000000000000000000000000000000000000000000000602082015250565b600061364d60258361287a565b9150613658826135f1565b604082019050919050565b6000602082019050818103600083015261367c81613640565b9050919050565b7f4552433732313a207472616e7366657220746f20746865207a65726f2061646460008201527f7265737300000000000000000000000000000000000000000000000000000000602082015250565b60006136df60248361287a565b91506136ea82613683565b604082019050919050565b6000602082019050818103600083015261370e816136d2565b9050919050565b60006137208261292a565b915061372b8361292a565b92508282101561373e5761373d613272565b5b828203905092915050565b7f45524337323155524953746f726167653a2055524920736574206f66206e6f6e60008201527f6578697374656e7420746f6b656e000000000000000000000000000000000000602082015250565b60006137a5602e8361287a565b91506137b082613749565b604082019050919050565b600060208201905081810360008301526137d481613798565b9050919050565b7f486f706566756c6c792073656e64696e672074686520636f727265637420707260008201527f6963650000000000000000000000000000000000000000000000000000000000602082015250565b600061383760238361287a565b9150613842826137db565b604082019050919050565b600060208201905081810360008301526138668161382a565b9050919050565b7f4d616b652073757265207468652070726963652069736e2774206e656761746960008201527f7665000000000000000000000000000000000000000000000000000000000000602082015250565b60006138c960228361287a565b91506138d48261386d565b604082019050919050565b600060208201905081810360008301526138f8816138bc565b9050919050565b600060808201905061391460008301876129bf565b61392160208301866129bf565b61392e6040830185612c20565b61393b6060830184612845565b95945050505050565b7f4552433732313a20617070726f766520746f2063616c6c657200000000000000600082015250565b600061397a60198361287a565b915061398582613944565b602082019050919050565b600060208201905081810360008301526139a98161396d565b9050919050565b7f4552433732313a207472616e7366657220746f206e6f6e20455243373231526560008201527f63656976657220696d706c656d656e7465720000000000000000000000000000602082015250565b6000613a0c60328361287a565b9150613a17826139b0565b604082019050919050565b60006020820190508181036000830152613a3b816139ff565b9050919050565b600081519050919050565b600082825260208201905092915050565b6000613a6982613a42565b613a738185613a4d565b9350613a8381856020860161288b565b613a8c816128be565b840191505092915050565b6000608082019050613aac60008301876129bf565b613ab960208301866129bf565b613ac66040830185612c20565b8181036060830152613ad88184613a5e565b905095945050505050565b600081519050613af2816127e0565b92915050565b600060208284031215613b0e57613b0d6127aa565b5b6000613b1c84828501613ae3565b91505092915050565b7f4e487b7100000000000000000000000000000000000000000000000000000000600052601260045260246000fd5b6000613b5f8261292a565b9150613b6a8361292a565b925082613b7a57613b79613b25565b5b828204905092915050565b6000613b908261292a565b9150613b9b8361292a565b925082613bab57613baa613b25565b5b828206905092915050565b7f4552433732313a206d696e7420746f20746865207a65726f2061646472657373600082015250565b6000613bec60208361287a565b9150613bf782613bb6565b602082019050919050565b60006020820190508181036000830152613c1b81613bdf565b9050919050565b7f4552433732313a20746f6b656e20616c7265616479206d696e74656400000000600082015250565b6000613c58601c8361287a565b9150613c6382613c22565b602082019050919050565b60006020820190508181036000830152613c8781613c4b565b905091905056fea26469706673582212201871d213b428f5f1b76f7fed3797fd4fc8f786b099ba6d70d45c91919b9dad9964736f6c63430008090033",
  "linkReferences": {},
  "deployedLinkReferences": {}
}